:030000000203BE3A
:0C03BE00787FE4F6D8FD75813D0204054F
:1001970012061EAD09AC087F0412044AAD0BAC0A67
:1001A7007F0312044AAD0DAC0C7F0212044AAD0F57
:1001B700AC0E7F0112044A20B1197F147E0012068B
:1001C7000930B1FD7F147E00120609E50915097093
:1001D70002150820B0197F147E0012060930B0FD01
:1001E7007F147E001206090509E50970020508203B
:1001F700B2177F147E0012060930B2FD7F147E000D
:100207001206096309FF6308FF12000E7512008FBB
:1002170013E512600302019AE51324FE60181460C7
:10022700201460282403600302019A050BE50B7074
:100237000D050A02019A050DE50D7002050C020174
:100247009A050FE50F7002050E02019AE4F50EF507
:100257000FF50CF50DF50AF50BF508F50902019AEE
:03000B0002026787
:10026700C0E0C0F0C083C082C0D075D000C000C05D
:1002770001C002C003C004C005C006C007758CFCDE
:10028700758A170511E51170020510D394E8E5107A
:10029700940340327510007511000509E509AC0893
:1002A7007002050814FD7F0412044AAD0BAC0A7FE7
:1002B7000312044AAD0DAC0C7F0212044AAD0FAC19
:1002C7000E7F0112044AE50964094508700EF50816
:1002D700F509050BE50B70EE050A80EAE50B6409E5
:1002E700450A700EF50AF50B050DE50D70EE050CC8
:1002F70080EAE50D6409450C700EF50CF50D050F48
:10030700E50F70EE050E80EAD007D006D005D004C1
:10031700D003D002D001D000D0D0D082D083D0F08B
:03032700D0E032F1
:0C0655000A163F065B4F666D7D077F6F45
:10044A00EF14B40800505490045F75F003A4C583F8
:10045A0025F0C5837302047702047B02047F020439
:10046A008302048702048F02049702049FD2A480A5
:10047A000ED2A48012D2A48016D2A4801AC2A4D208
:10048A00A3D2A28016C2A4D2A3C2A2800EC2A4C2C0
:10049A00A3D2A28006C2A4C2A3C2A274162DF8E6F1
:0D04AA00F5807F017E00120609E4F5802236
:10060900EF1FAC0670011E4C600A7D027CEFDCFE18
:04061900DDFC80EC98
:01061D0022BA
:10061E00758901C28DD28C758CFC758A17D2A9D2C0
:04062E00AFC2B9227C
:06064600C2A58F80D2A7BF
:08064C007F027EEFDEFEDFFC01
:010654002283
:0A066200C2A6120646C2A702064C0B
:1005B800CFCDCFCECCCE1203697C007D0A12036961
:0405C800ED2430FFEF
:0A05CC00D2A6120646C2A702064C92
:1005F300AE07BE0104ED148006BE0209ED243F449C
:0606030080FF12066222D6
:100632007F381206627F0C1206627F061206627F04
:040642000102066249
:0A066C00AC031205F3AF040205CC45
:060595008B3A8A3B893C11
:10059B001205F3E4FDAB3AAA3BA93C8D82758300AF
:0C05AB0012032AFF60061205CC0D80E947
:0105B7002221
:0C0562007F0AEA24FFFDE434FFFC7E0069
:08056E008E368F378C388D3971
:100576007F017E00E4FBEBC39539E5386480F874AF
:0E0586008098500AAC36AD371203570B80E850
:010594002244
:0405D6008A298B2AB9
:1005DA001205F3AA2BEAD39400400D120562AC2946
:0805EA00AD2A1205B81A80EDDC
:0105F20022E6
:1004B7001205F3C3EA64809480400B7F2B1205CCAE
:1004C7008A258B26800E7F2D1205CCC3E49BF5264B
:1004D700E49AF525AA24EAD39400400D120562ACEC
:0904E70025AD261205B81A80EDBE
:0104F00022E9
:0404F1008A2E8B2F95
:1004F5001205F3AA30EAD3940040297F101205644F
:10050500AC2EAD2FCFCDCFCECCCE120369EF540F8D
:10051500FEC3940AEE5004243080022437FF1205EE
:04052500CC1A80D19B
:0105290022AF
:04052A008A338B3451
:10052E001205F3AA35EAD394004028EA24FFFDE42D
:10053E0034FFFC7F027E0012056EAC33AD34CFCD9E
:10054E00CFCECCCE120369EF54012430FF1205CC6E
:03055E001A80D22E
:010561002277
:10000E00E4F53D7590FFC2972093137F14FE120600
:10001E00093093FD7F147E00120609753D01209272
:10002E00147F147E001206093092FD7F147E00129A
:10003E000609753D022091147F147E0012060930C8
:10004E0091FD7F147E00120609753D032090147FEA
:10005E00147E001206093090FD7F147E00120609F0
:10006E00753D047590FFC2962093147F147E001286
:10007E0006093093FD7F147E00120609753D05209A
:10008E0092147F147E001206093092FD7F147E00BA
:10009E00120609753D062091147F147E0012060982
:1000AE003091FD7F147E00120609753D07209014D5
:1000BE007F147E001206093090FD7F147E0012061A
:1000CE0009753D087590FFC2952093147F147E002C
:1000DE001206093093FD7F147E00120609753D0944
:1000EE002092147F147E001206093092FD7F147E3A
:1000FE0000120609753D0A2091147F147E00120627
:10010E00093091FD7F147E00120609753D0B20907B
:10011E00147F147E001206093090FD7F147E0012AB
:10012E000609753D0C7590FFC2942093147F147EC2
:10013E00001206093093FD7F147E00120609753DEC
:10014E000D2092147F147E001206093092FD7F144A
:10015E007E00120609753D0E2091147F147E00124A
:10016E0006093091FD7F147E00120609753D0F20A1
:10017E0090147F147E001206093090FD7F147E00CD
:08018E00120609753D10AF3D9A
:010196002246
:1003CA00020197E493A3F8E493A34003F68001F2B1
:1003DA0008DFF48029E493A3F85407240CC8C33334
:1003EA00C4540F4420C8834004F456800146F6DF03
:1003FA00E4800B0102040810204080900655E47E38
:10040A00019360BCA3FF543F30E509541FFEE493F7
:10041A00A360010ECF54C025E060A840B8E493A3BE
:10042A00FAE493A3F8E493A3C8C582C8CAC583CAE9
:10043A00F0A3C8C582C8CAC583CADFE9DEE780BEA1
:010661000098
:10032A00BB010CE58229F582E5833AF583E0225088
:10033A0006E92582F8E622BBFE06E92582F8E222D2
:0D034A00E58229F582E5833AF583E49322EC
:10035700EF8DF0A4A8F0CF8CF0A428CE8DF0A42EBA
:02036700FE2274
:10036900BC000BBE0029EF8DF084FFADF022E4CC78
:10037900F875F008EF2FFFEE33FEEC33FCEE9DEC41
:10038900984005FCEE9DFE0FD5F0E9E4CEFD22ED87
:10039900F8F5F0EE8420D21CFEADF075F008EF2FD1
:1003A900FFED33FD4007985006D5F0F222C398FDC2
:0503B9000FD5F0EA225F
:00000001FF
